{"safe":"0xC8ab97a9089a9Ff7E6eF0688e6e591a066946418","to":"0x65070BE91477460D8A7AeEb94ef92fe056C2f2A7","value":"0","data":"0x5c23bdf5b0bca505e898b79087fd5057f67c181f661d13ca1a5a091a3db0978a30de125b","operation":0,"gasToken":"0x0000000000000000000000000000000000000000","safeTxGas":0,"baseGas":0,"gasPrice":"0","refundReceiver":"0x0000000000000000000000000000000000000000","nonce":13773,"executionDate":"2026-06-18T00:31:59Z","submissionDate":"2026-06-18T00:31:59Z","modified":"2026-06-18T00:31:59Z","blockNumber":88691816,"transactionHash":"0x4594120f7b93d7eadd56e53594f208a3fe3e7b83f715871e59742eac796e017e","safeTxHash":"0x66154f89b4b9db693a7b014a13c436d89bd4218cc49c9cdd56887ee0701cbbfe","proposer":null,"proposedByDelegate":null,"executor":"0xB8F7761D8a267D03E24Fde9DB4c460FAa08bAd14","isExecuted":true,"isSuccessful":true,"ethGasPrice":"405043095493","maxFeePerGas":"1857936000000","maxPriorityFeePerGas":"154828000000","gasUsed":632602,"fee":"256231072295062786","payment":"0","origin":"{}","dataDecoded":{"method":"resolve","parameters":[{"name":"questionID","type":"bytes32","value":"0xb0bca505e898b79087fd5057f67c181f661d13ca1a5a091a3db0978a30de125b"}]},"confirmationsRequired":1,"confirmations":[{"owner":"0x96bde0dD1d5ba5cc8E1c74CDEC14041564A1363A","submissionDate":"2026-06-18T00:31:59Z","transactionHash":null,"signature":"0x26735e2a0ff7057c210189b20abf4cd402abd0048b2a4e369ce372f1e731aecc57f2b9f23c53dd41cb852a0cc073a1f6c670d12b2da10f1d2db91c97340c87d21f","signatureType":"ETH_SIGN"}],"trusted":true,"signatures":"0x26735e2a0ff7057c210189b20abf4cd402abd0048b2a4e369ce372f1e731aecc57f2b9f23c53dd41cb852a0cc073a1f6c670d12b2da10f1d2db91c97340c87d21f"}